{
  "_format": "hh-sol-artifact-1",
  "contractName": "NFT",
  "sourceName": "contracts/NFT.sol",
  "abi": [
    {
      "inputs": [],
      "stateMutability": "nonpayable",
      "type": "constructor"
    },
    {
      "anonymous": false,
      "inputs": [
        {
          "indexed": true,
          "internalType": "address",
          "name": "owner",
          "type": "address"
        },
        {
          "indexed": true,
          "internalType": "address",
          "name": "approved",
          "type": "address"
        },
        {
          "indexed": true,
          "internalType": "uint256",
          "name": "tokenId",
          "type": "uint256"
        }
      ],
      "name": "Approval",
      "type": "event"
    },
    {
      "anonymous": false,
      "inputs": [
        {
          "indexed": true,
          "internalType": "address",
          "name": "owner",
          "type": "address"
        },
        {
          "indexed": true,
          "internalType": "address",
          "name": "operator",
          "type": "address"
        },
        {
          "indexed": false,
          "internalType": "bool",
          "name": "approved",
          "type": "bool"
        }
      ],
      "name": "ApprovalForAll",
      "type": "event"
    },
    {
      "anonymous": false,
      "inputs": [
        {
          "indexed": true,
          "internalType": "address",
          "name": "previousOwner",
          "type": "address"
        },
        {
          "indexed": true,
          "internalType": "address",
          "name": "newOwner",
          "type": "address"
        }
      ],
      "name": "OwnershipTransferred",
      "type": "event"
    },
    {
      "anonymous": false,
      "inputs": [
        {
          "indexed": true,
          "internalType": "address",
          "name": "from",
          "type": "address"
        },
        {
          "indexed": true,
          "internalType": "address",
          "name": "to",
          "type": "address"
        },
        {
          "indexed": true,
          "internalType": "uint256",
          "name": "tokenId",
          "type": "uint256"
        }
      ],
      "name": "Transfer",
      "type": "event"
    },
    {
      "inputs": [
        {
          "internalType": "address",
          "name": "to",
          "type": "address"
        },
        {
          "internalType": "uint256",
          "name": "tokenId",
          "type": "uint256"
        }
      ],
      "name": "approve",
      "outputs": [],
      "stateMutability": "nonpayable",
      "type": "function"
    },
    {
      "inputs": [
        {
          "internalType": "address",
          "name": "owner",
          "type": "address"
        }
      ],
      "name": "balanceOf",
      "outputs": [
        {
          "internalType": "uint256",
          "name": "",
          "type": "uint256"
        }
      ],
      "stateMutability": "view",
      "type": "function"
    },
    {
      "inputs": [
        {
          "internalType": "uint256",
          "name": "tokenId",
          "type": "uint256"
        }
      ],
      "name": "getApproved",
      "outputs": [
        {
          "internalType": "address",
          "name": "",
          "type": "address"
        }
      ],
      "stateMutability": "view",
      "type": "function"
    },
    {
      "inputs": [
        {
          "internalType": "address",
          "name": "owner",
          "type": "address"
        },
        {
          "internalType": "address",
          "name": "operator",
          "type": "address"
        }
      ],
      "name": "isApprovedForAll",
      "outputs": [
        {
          "internalType": "bool",
          "name": "",
          "type": "bool"
        }
      ],
      "stateMutability": "view",
      "type": "function"
    },
    {
      "inputs": [
        {
          "internalType": "address",
          "name": "recipient",
          "type": "address"
        },
        {
          "internalType": "string",
          "name": "tokenURI",
          "type": "string"
        }
      ],
      "name": "mintNFT",
      "outputs": [
        {
          "internalType": "uint256",
          "name": "",
          "type": "uint256"
        }
      ],
      "stateMutability": "nonpayable",
      "type": "function"
    },
    {
      "inputs": [],
      "name": "name",
      "outputs": [
        {
          "internalType": "string",
          "name": "",
          "type": "string"
        }
      ],
      "stateMutability": "view",
      "type": "function"
    },
    {
      "inputs": [],
      "name": "owner",
      "outputs": [
        {
          "internalType": "address",
          "name": "",
          "type": "address"
        }
      ],
      "stateMutability": "view",
      "type": "function"
    },
    {
      "inputs": [
        {
          "internalType": "uint256",
          "name": "tokenId",
          "type": "uint256"
        }
      ],
      "name": "ownerOf",
      "outputs": [
        {
          "internalType": "address",
          "name": "",
          "type": "address"
        }
      ],
      "stateMutability": "view",
      "type": "function"
    },
    {
      "inputs": [],
      "name": "renounceOwnership",
      "outputs": [],
      "stateMutability": "nonpayable",
      "type": "function"
    },
    {
      "inputs": [
        {
          "internalType": "address",
          "name": "from",
          "type": "address"
        },
        {
          "internalType": "address",
          "name": "to",
          "type": "address"
        },
        {
          "internalType": "uint256",
          "name": "tokenId",
          "type": "uint256"
        }
      ],
      "name": "safeTransferFrom",
      "outputs": [],
      "stateMutability": "nonpayable",
      "type": "function"
    },
    {
      "inputs": [
        {
          "internalType": "address",
          "name": "from",
          "type": "address"
        },
        {
          "internalType": "address",
          "name": "to",
          "type": "address"
        },
        {
          "internalType": "uint256",
          "name": "tokenId",
          "type": "uint256"
        },
        {
          "internalType": "bytes",
          "name": "_data",
          "type": "bytes"
        }
      ],
      "name": "safeTransferFrom",
      "outputs": [],
      "stateMutability": "nonpayable",
      "type": "function"
    },
    {
      "inputs": [
        {
          "internalType": "address",
          "name": "operator",
          "type": "address"
        },
        {
          "internalType": "bool",
          "name": "approved",
          "type": "bool"
        }
      ],
      "name": "setApprovalForAll",
      "outputs": [],
      "stateMutability": "nonpayable",
      "type": "function"
    },
    {
      "inputs": [
        {
          "internalType": "bytes4",
          "name": "interfaceId",
          "type": "bytes4"
        }
      ],
      "name": "supportsInterface",
      "outputs": [
        {
          "internalType": "bool",
          "name": "",
          "type": "bool"
        }
      ],
      "stateMutability": "view",
      "type": "function"
    },
    {
      "inputs": [],
      "name": "symbol",
      "outputs": [
        {
          "internalType": "string",
          "name": "",
          "type": "string"
        }
      ],
      "stateMutability": "view",
      "type": "function"
    },
    {
      "inputs": [
        {
          "internalType": "uint256",
          "name": "tokenId",
          "type": "uint256"
        }
      ],
      "name": "tokenURI",
      "outputs": [
        {
          "internalType": "string",
          "name": "",
          "type": "string"
        }
      ],
      "stateMutability": "view",
      "type": "function"
    },
    {
      "inputs": [
        {
          "internalType": "address",
          "name": "from",
          "type": "address"
        },
        {
          "internalType": "address",
          "name": "to",
          "type": "address"
        },
        {
          "internalType": "uint256",
          "name": "tokenId",
          "type": "uint256"
        }
      ],
      "name": "transferFrom",
      "outputs": [],
      "stateMutability": "nonpayable",
      "type": "function"
    },
    {
      "inputs": [
        {
          "internalType": "address",
          "name": "newOwner",
          "type": "address"
        }
      ],
      "name": "transferOwnership",
      "outputs": [],
      "stateMutability": "nonpayable",
      "type": "function"
    }
  ],
  "bytecode": "0x60806040523480156200001157600080fd5b506040518060400160405280600381526020017f4e465400000000000000000000000000000000000000000000000000000000008152506040518060400160405280600381526020017f4e46540000000000000000000000000000000000000000000000000000000000815250816000908051906020019062000096929190620001a6565b508060019080519060200190620000af929190620001a6565b505050620000d2620000c6620000d860201b60201c565b620000e060201b60201c565b620002bb565b600033905090565b6000600760009054906101000a900473ffffffffffffffffffffffffffffffffffffffff16905081600760006101000a81548173ffffffffffffffffffffffffffffffffffffffff021916908373ffffffffffffffffffffffffffffffffffffffff1602179055508173ffffffffffffffffffffffffffffffffffffffff168173ffffffffffffffffffffffffffffffffffffffff167f8be0079c531659141344cd1fd0a4f28419497f9722a3daafe3b4186f6b6457e060405160405180910390a35050565b828054620001b49062000256565b90600052602060002090601f016020900481019282620001d8576000855562000224565b82601f10620001f357805160ff191683800117855562000224565b8280016001018555821562000224579182015b828111156200022357825182559160200191906001019062000206565b5b50905062000233919062000237565b5090565b5b808211156200025257600081600090555060010162000238565b5090565b600060028204905060018216806200026f57607f821691505b602082108114156200028657620002856200028c565b5b50919050565b7f4e487b7100000000000000000000000000000000000000000000000000000000600052602260045260246000fd5b612ff180620002cb6000396000f3fe608060405234801561001057600080fd5b506004361061010b5760003560e01c8063715018a6116100a2578063b88d4fde11610071578063b88d4fde146102a4578063c87b56dd146102c0578063e985e9c5146102f0578063eacabe1414610320578063f2fde38b146103505761010b565b8063715018a6146102425780638da5cb5b1461024c57806395d89b411461026a578063a22cb465146102885761010b565b806323b872dd116100de57806323b872dd146101aa57806342842e0e146101c65780636352211e146101e257806370a08231146102125761010b565b806301ffc9a71461011057806306fdde0314610140578063081812fc1461015e578063095ea7b31461018e575b600080fd5b61012a60048036038101906101259190611f51565b61036c565b60405161013791906123a9565b60405180910390f35b61014861044e565b60405161015591906123c4565b60405180910390f35b61017860048036038101906101739190611fab565b6104e0565b6040516101859190612342565b60405180910390f35b6101a860048036038101906101a39190611f11565b610565565b005b6101c460048036038101906101bf9190611d9f565b61067d565b005b6101e060048036038101906101db9190611d9f565b6106dd565b005b6101fc60048036038101906101f79190611fab565b6106fd565b6040516102099190612342565b60405180910390f35b61022c60048036038101906102279190611d32565b6107af565b6040516102399190612626565b60405180910390f35b61024a610867565b005b6102546108ef565b6040516102619190612342565b60405180910390f35b610272610919565b60405161027f91906123c4565b60405180910390f35b6102a2600480360381019061029d9190611e75565b6109ab565b005b6102be60048036038101906102b99190611df2565b6109c1565b005b6102da60048036038101906102d59190611fab565b610a23565b6040516102e791906123c4565b60405180910390f35b61030a60048036038101906103059190611d5f565b610b75565b60405161031791906123a9565b60405180910390f35b61033a60048036038101906103359190611eb5565b610c09565b6040516103479190612626565b60405180910390f35b61036a60048036038101906103659190611d32565b610c41565b005b60007f80ac58cd000000000000000000000000000000000000000000000000000000007bffffffffffffffffffffffffffffffffffffffffffffffffffffffff1916827bffffffffffffffffffffffffffffffffffffffffffffffffffffffff1916148061043757507f5b5e139f000000000000000000000000000000000000000000000000000000007bffffffffffffffffffffffffffffffffffffffffffffffffffffffff1916827bffffffffffffffffffffffffffffffffffffffffffffffffffffffff1916145b80610447575061044682610d39565b5b9050919050565b60606000805461045d9061287c565b80601f01602080910402602001604051908101604052809291908181526020018280546104899061287c565b80156104d65780601f106104ab576101008083540402835291602001916104d6565b820191906000526020600020905b8154815290600101906020018083116104b957829003601f168201915b5050505050905090565b60006104eb82610da3565b61052a576040517f08c379a000000000000000000000000000000000000000000000000000000000815260040161052190612566565b60405180910390fd5b6004600083815260200190815260200160002060009054906101000a900473ffffffffffffffffffffffffffffffffffffffff169050919050565b6000610570826106fd565b90508073ffffffffffffffffffffffffffffffffffffffff168373ffffffffffffffffffffffffffffffffffffffff1614156105e1576040517f08c379a00000000000000000000000000000000000000000000000000000000081526004016105d8906125e6565b60405180910390fd5b8073ffffffffffffffffffffffffffffffffffffffff16610600610e0f565b73ffffffffffffffffffffffffffffffffffffffff16148061062f575061062e81610629610e0f565b610b75565b5b61066e576040517f08c379a0000000000000000000000000000000000000000000000000000000008152600401610665906124a6565b60405180910390fd5b6106788383610e17565b505050565b61068e610688610e0f565b82610ed0565b6106cd576040517f08c379a00000000000000000000000000000000000000000000000000000000081526004016106c490612606565b60405180910390fd5b6106d8838383610fae565b505050565b6106f8838383604051806020016040528060008152506109c1565b505050565b6000806002600084815260200190815260200160002060009054906101000a900473ffffffffffffffffffffffffffffffffffffffff169050600073ffffffffffffffffffffffffffffffffffffffff168173ffffffffffffffffffffffffffffffffffffffff1614156107a6576040517f08c379a000000000000000000000000000000000000000000000000000000000815260040161079d906124e6565b60405180910390fd5b80915050919050565b60008073ffffffffffffffffffffffffffffffffffffffff168273ffffffffffffffffffffffffffffffffffffffff161415610820576040517f08c379a0000000000000000000000000000000000000000000000000000000008152600401610817906124c6565b60405180910390fd5b600360008373ffffffffffffffffffffffffffffffffffffffff1673ffffffffffffffffffffffffffffffffffffffff168152602001908152602001600020549050919050565b61086f610e0f565b73ffffffffffffffffffffffffffffffffffffffff1661088d6108ef565b73ffffffffffffffffffffffffffffffffffffffff16146108e3576040517f08c379a00000000000000000000000000000000000000000000000000000000081526004016108da90612586565b60405180910390fd5b6108ed600061120a565b565b6000600760009054906101000a900473ffffffffffffffffffffffffffffffffffffffff16905090565b6060600180546109289061287c565b80601f01602080910402602001604051908101604052809291908181526020018280546109549061287c565b80156109a15780601f10610976576101008083540402835291602001916109a1565b820191906000526020600020905b81548152906001019060200180831161098457829003601f168201915b5050505050905090565b6109bd6109b6610e0f565b83836112d0565b5050565b6109d26109cc610e0f565b83610ed0565b610a11576040517f08c379a0000000000000000000000000000000000000000000000000000000008152600401610a0890612606565b60405180910390fd5b610a1d8484848461143d565b50505050565b6060610a2e82610da3565b610a6d576040517f08c379a0000000000000000000000000000000000000000000000000000000008152600401610a6490612546565b60405180910390fd5b6000600660008481526020019081526020016000208054610a8d9061287c565b80601f0160208091040260200160405190810160405280929190818152602001828054610ab99061287c565b8015610b065780601f10610adb57610100808354040283529160200191610b06565b820191906000526020600020905b815481529060010190602001808311610ae957829003601f168201915b505050505090506000610b17611499565b9050600081511415610b2d578192505050610b70565b600082511115610b62578082604051602001610b4a92919061231e565b60405160208183030381529060405292505050610b70565b610b6b846114b0565b925050505b919050565b6000600560008473ffffffffffffffffffffffffffffffffffffffff1673ffffffffffffffffffffffffffffffffffffffff16815260200190815260200160002060008373ffffffffffffffffffffffffffffffffffffffff1673ffffffffffffffffffffffffffffffffffffffff16815260200190815260200160002060009054906101000a900460ff16905092915050565b6000610c156008611557565b6000610c21600861156d565b9050610c2d848261157b565b610c378184611599565b8091505092915050565b610c49610e0f565b73ffffffffffffffffffffffffffffffffffffffff16610c676108ef565b73ffffffffffffffffffffffffffffffffffffffff1614610cbd576040517f08c379a0000000000000000000000000000000000000000000000000000000008152600401610cb490612586565b60405180910390fd5b600073ffffffffffffffffffffffffffffffffffffffff168173ffffffffffffffffffffffffffffffffffffffff161415610d2d576040517f08c379a0000000000000000000000000000000000000000000000000000000008152600401610d2490612406565b60405180910390fd5b610d368161120a565b50565b60007f01ffc9a7000000000000000000000000000000000000000000000000000000007bffffffffffffffffffffffffffffffffffffffffffffffffffffffff1916827bffffffffffffffffffffffffffffffffffffffffffffffffffffffff1916149050919050565b60008073ffffffffffffffffffffffffffffffffffffffff166002600084815260200190815260200160002060009054906101000a900473ffffffffffffffffffffffffffffffffffffffff1673ffffffffffffffffffffffffffffffffffffffff1614159050919050565b600033905090565b816004600083815260200190815260200160002060006101000a81548173ffffffffffffffffffffffffffffffffffffffff021916908373ffffffffffffffffffffffffffffffffffffffff160217905550808273ffffffffffffffffffffffffffffffffffffffff16610e8a836106fd565b73ffffffffffffffffffffffffffffffffffffffff167f8c5be1e5ebec7d5bd14f71427d1e84f3dd0314c0f7b2291e5b200ac8c7c3b92560405160405180910390a45050565b6000610edb82610da3565b610f1a576040517f08c379a0000000000000000000000000000000000000000000000000000000008152600401610f1190612486565b60405180910390fd5b6000610f25836106fd565b90508073ffffffffffffffffffffffffffffffffffffffff168473ffffffffffffffffffffffffffffffffffffffff161480610f9457508373ffffffffffffffffffffffffffffffffffffffff16610f7c846104e0565b73ffffffffffffffffffffffffffffffffffffffff16145b80610fa55750610fa48185610b75565b5b91505092915050565b8273ffffffffffffffffffffffffffffffffffffffff16610fce826106fd565b73ffffffffffffffffffffffffffffffffffffffff1614611024576040517f08c379a000000000000000000000000000000000000000000000000000000000815260040161101b906125a6565b60405180910390fd5b600073ffffffffffffffffffffffffffffffffffffffff168273ffffffffffffffffffffffffffffffffffffffff161415611094576040517f08c379a000000000000000000000000000000000000000000000000000000000815260040161108b90612446565b60405180910390fd5b61109f83838361160d565b6110aa600082610e17565b6001600360008573ffffffffffffffffffffffffffffffffffffffff1673ffffffffffffffffffffffffffffffffffffffff16815260200190815260200160002060008282546110fa9190612792565b925050819055506001600360008473ffffffffffffffffffffffffffffffffffffffff1673ffffffffffffffffffffffffffffffffffffffff1681526020019081526020016000206000828254611151919061270b565b92505081905550816002600083815260200190815260200160002060006101000a81548173ffffffffffffffffffffffffffffffffffffffff021916908373ffffffffffffffffffffffffffffffffffffffff160217905550808273ffffffffffffffffffffffffffffffffffffffff168473ffffffffffffffffffffffffffffffffffffffff167fddf252ad1be2c89b69c2b068fc378daa952ba7f163c4a11628f55a4df523b3ef60405160405180910390a4505050565b6000600760009054906101000a900473ffffffffffffffffffffffffffffffffffffffff16905081600760006101000a81548173ffffffffffffffffffffffffffffffffffffffff021916908373ffffffffffffffffffffffffffffffffffffffff1602179055508173ffffffffffffffffffffffffffffffffffffffff168173ffffffffffffffffffffffffffffffffffffffff167f8be0079c531659141344cd1fd0a4f28419497f9722a3daafe3b4186f6b6457e060405160405180910390a35050565b8173ffffffffffffffffffffffffffffffffffffffff168373ffffffffffffffffffffffffffffffffffffffff16141561133f576040517f08c379a000000000000000000000000000000000000000000000000000000000815260040161133690612466565b60405180910390fd5b80600560008573ffffffffffffffffffffffffffffffffffffffff1673ffffffffffffffffffffffffffffffffffffffff16815260200190815260200160002060008473ffffffffffffffffffffffffffffffffffffffff1673ffffffffffffffffffffffffffffffffffffffff16815260200190815260200160002060006101000a81548160ff0219169083151502179055508173ffffffffffffffffffffffffffffffffffffffff168373ffffffffffffffffffffffffffffffffffffffff167f17307eab39ab6107e8899845ad3d59bd9653f200f220920489ca2b5937696c318360405161143091906123a9565b60405180910390a3505050565b611448848484610fae565b61145484848484611612565b611493576040517f08c379a000000000000000000000000000000000000000000000000000000000815260040161148a906123e6565b60405180910390fd5b50505050565b606060405180602001604052806000815250905090565b60606114bb82610da3565b6114fa576040517f08c379a00000000000000000000000000000000000000000000000000000000081526004016114f1906125c6565b60405180910390fd5b6000611504611499565b90506000815111611524576040518060200160405280600081525061154f565b8061152e846117a9565b60405160200161153f92919061231e565b6040516020818303038152906040525b915050919050565b6001816000016000828254019250508190555050565b600081600001549050919050565b61159582826040518060200160405280600081525061190a565b5050565b6115a282610da3565b6115e1576040517f08c379a00000000000000000000000000000000000000000000000000000000081526004016115d890612506565b60405180910390fd5b80600660008481526020019081526020016000209080519060200190611608929190611b46565b505050565b505050565b60006116338473ffffffffffffffffffffffffffffffffffffffff16611965565b1561179c578373ffffffffffffffffffffffffffffffffffffffff1663150b7a0261165c610e0f565b8786866040518563ffffffff1660e01b815260040161167e949392919061235d565b602060405180830381600087803b15801561169857600080fd5b505af19250505080156116c957506040513d601f19601f820116820180604052508101906116c69190611f7e565b60015b61174c573d80600081146116f9576040519150601f19603f3d011682016040523d82523d6000602084013e6116fe565b606091505b50600081511415611744576040517f08c379a000000000000000000000000000000000000000000000000000000000815260040161173b906123e6565b60405180910390fd5b805181602001fd5b63150b7a0260e01b7bffffffffffffffffffffffffffffffffffffffffffffffffffffffff1916817bffffffffffffffffffffffffffffffffffffffffffffffffffffffff1916149150506117a1565b600190505b949350505050565b606060008214156117f1576040518060400160405280600181526020017f30000000000000000000000000000000000000000000000000000000000000008152509050611905565b600082905060005b6000821461182357808061180c906128df565b915050600a8261181c9190612761565b91506117f9565b60008167ffffffffffffffff81111561183f5761183e612a15565b5b6040519080825280601f01601f1916602001820160405280156118715781602001600182028036833780820191505090505b5090505b600085146118fe5760018261188a9190612792565b9150600a856118999190612928565b60306118a5919061270b565b60f81b8183815181106118bb576118ba6129e6565b5b60200101907effffffffffffffffffffffffffffffffffffffffffffffffffffffffffffff1916908160001a905350600a856118f79190612761565b9450611875565b8093505050505b919050565b6119148383611978565b6119216000848484611612565b611960576040517f08c379a0000000000000000000000000000000000000000000000000000000008152600401611957906123e6565b60405180910390fd5b505050565b600080823b905060008111915050919050565b600073ffffffffffffffffffffffffffffffffffffffff168273ffffffffffffffffffffffffffffffffffffffff1614156119e8576040517f08c379a00000000000000000000000000000000000000000000000000000000081526004016119df90612526565b60405180910390fd5b6119f181610da3565b15611a31576040517f08c379a0000000000000000000000000000000000000000000000000000000008152600401611a2890612426565b60405180910390fd5b611a3d6000838361160d565b6001600360008473ffffffffffffffffffffffffffffffffffffffff1673ffffffffffffffffffffffffffffffffffffffff1681526020019081526020016000206000828254611a8d919061270b565b92505081905550816002600083815260200190815260200160002060006101000a81548173ffffffffffffffffffffffffffffffffffffffff021916908373ffffffffffffffffffffffffffffffffffffffff160217905550808273ffffffffffffffffffffffffffffffffffffffff16600073ffffffffffffffffffffffffffffffffffffffff167fddf252ad1be2c89b69c2b068fc378daa952ba7f163c4a11628f55a4df523b3ef60405160405180910390a45050565b828054611b529061287c565b90600052602060002090601f016020900481019282611b745760008555611bbb565b82601f10611b8d57805160ff1916838001178555611bbb565b82800160010185558215611bbb579182015b82811115611bba578251825591602001919060010190611b9f565b5b509050611bc89190611bcc565b5090565b5b80821115611be5576000816000905550600101611bcd565b5090565b6000611bfc611bf784612666565b612641565b905082815260208101848484011115611c1857611c17612a49565b5b611c2384828561283a565b509392505050565b6000611c3e611c3984612697565b612641565b905082815260208101848484011115611c5a57611c59612a49565b5b611c6584828561283a565b509392505050565b600081359050611c7c81612f5f565b92915050565b600081359050611c9181612f76565b92915050565b600081359050611ca681612f8d565b92915050565b600081519050611cbb81612f8d565b92915050565b600082601f830112611cd657611cd5612a44565b5b8135611ce6848260208601611be9565b91505092915050565b600082601f830112611d0457611d03612a44565b5b8135611d14848260208601611c2b565b91505092915050565b600081359050611d2c81612fa4565b92915050565b600060208284031215611d4857611d47612a53565b5b6000611d5684828501611c6d565b91505092915050565b60008060408385031215611d7657611d75612a53565b5b6000611d8485828601611c6d565b9250506020611d9585828601611c6d565b9150509250929050565b600080600060608486031215611db857611db7612a53565b5b6000611dc686828701611c6d565b9350506020611dd786828701611c6d565b9250506040611de886828701611d1d565b9150509250925092565b60008060008060808587031215611e0c57611e0b612a53565b5b6000611e1a87828801611c6d565b9450506020611e2b87828801611c6d565b9350506040611e3c87828801611d1d565b925050606085013567ffffffffffffffff811115611e5d57611e5c612a4e565b5b611e6987828801611cc1565b91505092959194509250565b60008060408385031215611e8c57611e8b612a53565b5b6000611e9a85828601611c6d565b9250506020611eab85828601611c82565b9150509250929050565b60008060408385031215611ecc57611ecb612a53565b5b6000611eda85828601611c6d565b925050602083013567ffffffffffffffff811115611efb57611efa612a4e565b5b611f0785828601611cef565b9150509250929050565b60008060408385031215611f2857611f27612a53565b5b6000611f3685828601611c6d565b9250506020611f4785828601611d1d565b9150509250929050565b600060208284031215611f6757611f66612a53565b5b6000611f7584828501611c97565b91505092915050565b600060208284031215611f9457611f93612a53565b5b6000611fa284828501611cac565b91505092915050565b600060208284031215611fc157611fc0612a53565b5b6000611fcf84828501611d1d565b91505092915050565b611fe1816127c6565b82525050565b611ff0816127d8565b82525050565b6000612001826126c8565b61200b81856126de565b935061201b818560208601612849565b61202481612a58565b840191505092915050565b600061203a826126d3565b61204481856126ef565b9350612054818560208601612849565b61205d81612a58565b840191505092915050565b6000612073826126d3565b61207d8185612700565b935061208d818560208601612849565b80840191505092915050565b60006120a66032836126ef565b91506120b182612a69565b604082019050919050565b60006120c96026836126ef565b91506120d482612ab8565b604082019050919050565b60006120ec601c836126ef565b91506120f782612b07565b602082019050919050565b600061210f6024836126ef565b915061211a82612b30565b604082019050919050565b60006121326019836126ef565b915061213d82612b7f565b602082019050919050565b6000612155602c836126ef565b915061216082612ba8565b604082019050919050565b60006121786038836126ef565b915061218382612bf7565b604082019050919050565b600061219b602a836126ef565b91506121a682612c46565b604082019050919050565b60006121be6029836126ef565b91506121c982612c95565b604082019050919050565b60006121e1602e836126ef565b91506121ec82612ce4565b604082019050919050565b60006122046020836126ef565b915061220f82612d33565b602082019050919050565b60006122276031836126ef565b915061223282612d5c565b604082019050919050565b600061224a602c836126ef565b915061225582612dab565b604082019050919050565b600061226d6020836126ef565b915061227882612dfa565b602082019050919050565b60006122906029836126ef565b915061229b82612e23565b604082019050919050565b60006122b3602f836126ef565b91506122be82612e72565b604082019050919050565b60006122d66021836126ef565b91506122e182612ec1565b604082019050919050565b60006122f96031836126ef565b915061230482612f10565b604082019050919050565b61231881612830565b82525050565b600061232a8285612068565b91506123368284612068565b91508190509392505050565b60006020820190506123576000830184611fd8565b92915050565b60006080820190506123726000830187611fd8565b61237f6020830186611fd8565b61238c604083018561230f565b818103606083015261239e8184611ff6565b905095945050505050565b60006020820190506123be6000830184611fe7565b92915050565b600060208201905081810360008301526123de818461202f565b905092915050565b600060208201905081810360008301526123ff81612099565b9050919050565b6000602082019050818103600083015261241f816120bc565b9050919050565b6000602082019050818103600083015261243f816120df565b9050919050565b6000602082019050818103600083015261245f81612102565b9050919050565b6000602082019050818103600083015261247f81612125565b9050919050565b6000602082019050818103600083015261249f81612148565b9050919050565b600060208201905081810360008301526124bf8161216b565b9050919050565b600060208201905081810360008301526124df8161218e565b9050919050565b600060208201905081810360008301526124ff816121b1565b9050919050565b6000602082019050818103600083015261251f816121d4565b9050919050565b6000602082019050818103600083015261253f816121f7565b9050919050565b6000602082019050818103600083015261255f8161221a565b9050919050565b6000602082019050818103600083015261257f8161223d565b9050919050565b6000602082019050818103600083015261259f81612260565b9050919050565b600060208201905081810360008301526125bf81612283565b9050919050565b600060208201905081810360008301526125df816122a6565b9050919050565b600060208201905081810360008301526125ff816122c9565b9050919050565b6000602082019050818103600083015261261f816122ec565b9050919050565b600060208201905061263b600083018461230f565b92915050565b600061264b61265c565b905061265782826128ae565b919050565b6000604051905090565b600067ffffffffffffffff82111561268157612680612a15565b5b61268a82612a58565b9050602081019050919050565b600067ffffffffffffffff8211156126b2576126b1612a15565b5b6126bb82612a58565b9050602081019050919050565b600081519050919050565b600081519050919050565b600082825260208201905092915050565b600082825260208201905092915050565b600081905092915050565b600061271682612830565b915061272183612830565b9250827fffffffffffffffffffffffffffffffffffffffffffffffffffffffffffffffff0382111561275657612755612959565b5b828201905092915050565b600061276c82612830565b915061277783612830565b92508261278757612786612988565b5b828204905092915050565b600061279d82612830565b91506127a883612830565b9250828210156127bb576127ba612959565b5b828203905092915050565b60006127d182612810565b9050919050565b60008115159050919050565b60007fffffffff0000000000000000000000000000000000000000000000000000000082169050919050565b600073ffffffffffffffffffffffffffffffffffffffff82169050919050565b6000819050919050565b82818337600083830152505050565b60005b8381101561286757808201518184015260208101905061284c565b83811115612876576000848401525b50505050565b6000600282049050600182168061289457607f821691505b602082108114156128a8576128a76129b7565b5b50919050565b6128b782612a58565b810181811067ffffffffffffffff821117156128d6576128d5612a15565b5b80604052505050565b60006128ea82612830565b91507fffffffffffffffffffffffffffffffffffffffffffffffffffffffffffffffff82141561291d5761291c612959565b5b600182019050919050565b600061293382612830565b915061293e83612830565b92508261294e5761294d612988565b5b828206905092915050565b7f4e487b7100000000000000000000000000000000000000000000000000000000600052601160045260246000fd5b7f4e487b7100000000000000000000000000000000000000000000000000000000600052601260045260246000fd5b7f4e487b7100000000000000000000000000000000000000000000000000000000600052602260045260246000fd5b7f4e487b7100000000000000000000000000000000000000000000000000000000600052603260045260246000fd5b7f4e487b7100000000000000000000000000000000000000000000000000000000600052604160045260246000fd5b600080fd5b600080fd5b600080fd5b600080fd5b6000601f19601f8301169050919050565b7f4552433732313a207472616e7366657220746f206e6f6e20455243373231526560008201527f63656976657220696d706c656d656e7465720000000000000000000000000000602082015250565b7f4f776e61626c653a206e6577206f776e657220697320746865207a65726f206160008201527f6464726573730000000000000000000000000000000000000000000000000000602082015250565b7f4552433732313a20746f6b656e20616c7265616479206d696e74656400000000600082015250565b7f4552433732313a207472616e7366657220746f20746865207a65726f2061646460008201527f7265737300000000000000000000000000000000000000000000000000000000602082015250565b7f4552433732313a20617070726f766520746f2063616c6c657200000000000000600082015250565b7f4552433732313a206f70657261746f7220717565727920666f72206e6f6e657860008201527f697374656e7420746f6b656e0000000000000000000000000000000000000000602082015250565b7f4552433732313a20617070726f76652063616c6c6572206973206e6f74206f7760008201527f6e6572206e6f7220617070726f76656420666f7220616c6c0000000000000000602082015250565b7f4552433732313a2062616c616e636520717565727920666f7220746865207a6560008201527f726f206164647265737300000000000000000000000000000000000000000000602082015250565b7f4552433732313a206f776e657220717565727920666f72206e6f6e657869737460008201527f656e7420746f6b656e0000000000000000000000000000000000000000000000602082015250565b7f45524337323155524953746f726167653a2055524920736574206f66206e6f6e60008201527f6578697374656e7420746f6b656e000000000000000000000000000000000000602082015250565b7f4552433732313a206d696e7420746f20746865207a65726f2061646472657373600082015250565b7f45524337323155524953746f726167653a2055524920717565727920666f722060008201527f6e6f6e6578697374656e7420746f6b656e000000000000000000000000000000602082015250565b7f4552433732313a20617070726f76656420717565727920666f72206e6f6e657860008201527f697374656e7420746f6b656e0000000000000000000000000000000000000000602082015250565b7f4f776e61626c653a2063616c6c6572206973206e6f7420746865206f776e6572600082015250565b7f4552433732313a207472616e73666572206f6620746f6b656e2074686174206960008201527f73206e6f74206f776e0000000000000000000000000000000000000000000000602082015250565b7f4552433732314d657461646174613a2055524920717565727920666f72206e6f60008201527f6e6578697374656e7420746f6b656e0000000000000000000000000000000000602082015250565b7f4552433732313a20617070726f76616c20746f2063757272656e74206f776e6560008201527f7200000000000000000000000000000000000000000000000000000000000000602082015250565b7f4552433732313a207472616e736665722063616c6c6572206973206e6f74206f60008201527f776e6572206e6f7220617070726f766564000000000000000000000000000000602082015250565b612f68816127c6565b8114612f7357600080fd5b50565b612f7f816127d8565b8114612f8a57600080fd5b50565b612f96816127e4565b8114612fa157600080fd5b50565b612fad81612830565b8114612fb857600080fd5b5056fea26469706673582212200658ae8cab23c30d26ebf3908e336013dc0926c58f67eb5f0a6d07e0c7cc5dc864736f6c63430008060033",
  "linkReferences": {},
  "deployedLinkReferences": {}
}